:020000040800F2
:10000000A8040020C9000008A5020008F9010008A2
:1000100000000000000000000000000000000000E0
:1000200000000000000000000000000005050008BE
:100030000000000000000000F9020008B5050008FB
:10004000F300000800000000F3000008F3000008BF
:10005000F3000008F3000008F3000008F3000008B4
:1000600000000000F3000008F3000008F30000089F
:10007000F3000008F3000008F3000008000000008F
:10008000190600080000000000000000F30000084E
:10009000F3000008F3000008F3000008F300000874
:1000A000F3000008F3000008F3000008410800080E
:1000B000F30000080348854600F040F80048004778
:1000C000750C0008A80400200A4880F308880A4834
:1000D0000168090E094A914202D1094809490160A3
:1000E0000948804709480047FEE7FEE7FEE7FEE7CC
:1000F000FEE7FEE7A8040020040000001F00000047
:100100001810024001000000B9050008B500000801
:1001100030B50B46014600202022012409E00D469F
:10012000D5409D4205D31D469540491B2546954027
:1001300040191546521E002DF1DC30BD064C01253C
:10014000064E05E0E36807CC2B430C3C984710347F
:10015000B442F7D3FFF7B2FF780F0008980F0008FA
:10016000F0B50022012423460D6893401D409D42B6
:100170002AD10D79012D01D0022D12D187685500A9
:100180000326AE40B74387604E79AE4085682E4364
:10019000866085889D43858085888B7993401D4343
:1001A0008580066855000323AB409E4306600E79A8
:1001B0000768AE403E430660C6689E43C660CB7982
:1001C000AB40C5682B43C360521C102ACBD3F0BD93
:1001D0004B07DB0E9A40C90810B589000818016A60
:1001E0000F249C40A1430162016A1143016210BDCA
:1001F0000185704781617047FEE7000070B50546D4
:100200000C465D2000F064F9002801D000F09AF857
:10021000064800F02DF8284600F01EF8204600F0B1
:1002200021F800F011F800F003F870BD55550000FA
:100230000249014808607047CCCC00000030004003
:1002400010B500F001F810BD024901480860704780
:10025000AAAA000000300040014948607047000031
:1002600000300040014988607047000000300040C5
:100270000149086070470000003000401CB50121B2
:10028000480400F03BF80220009001206946087104
:1002900000208871C871032048710920C006FFF74B
:1002A0005FFF1CBD7047000030B5837801210278E4
:1002B000002B15D094080E4BA400E4182368920775
:1002C000D50EFF22AA40934342789207120EAA400D
:1002D0001A4322600078C006C00E8140054804E041
:1002E000D006C00E814003488030016030BD000060
:1002F00000E400E000E100E070470000044A00294B
:10030000516901D0014300E0814351617047000011
:1003100000100240044A0029D16901D0014300E0E5
:100320008143D1617047000000100240044A002957
:10033000916901D0014300E0814391617047000061
:10034000001002400348416A012212061143416233
:100350007047000000100240F8B5564D044668682A
:1003600000210C22544E104005D0042803D0082848
:1003700003D00C281AD026601AE069686868032246
:100380008902D2030F0F1040BF1C00280AD0E86A70
:100390000107090F3046491CFFF7BAFE78430146B2
:1003A000216005E0454839464143F9E7444820606B
:1003B0006868444F0006000F3B5C20680246DA4044
:1003C00062606B685B055B0FFB5CDA40A2602B6BC5
:1003D000DB0501D43C4B05E06B685B0401D453089A
:1003E00000E09308E3602B6B5F06384B03D4374F74
:1003F0001237276100E023612F6BFF0601D466618D
:1004000000E060612F6BBF070ED02F6BBF07BF0FDF
:10041000012F0BD02F6BBF07BF0F022F08D02F6B00
:10042000FF43BF0706D006E0A26104E0A06102E03E
:10043000A36100E0A6612F6BBF03BF0F0FD02F6B2E
:10044000BF03BF0F012F0CD02F6BBF03BF0F022FB5
:1004500009D02F6BBF03BF0F032F06D006E0E26168
:1004600004E0E06102E0E36100E0E6612F6B3F033E
:10047000BF0F0FD02A6B1203920F012A0CD0286BEA
:100480000003800F022809D0286B0003800F032887
:1004900006D006E0226204E0206202E0236200E06F
:1004A0002662286B000602D405486062F8BD6162CE
:1004B000F8BD00000010024000127A0000093D0063
:1004C000006CDC0214000020809FD500008000003A
:1004D000034600200A495A090CD0012A0CD0022AEE
:1004E0000CD0496BDA06D20E012393400B4200D0A8
:1004F000012070470968F5E7096AF3E7496AF1E7FF
:1005000000100240704700001CB5002221480192F3
:100510000092016801231B04994301600221052315
:100520001B0304680C400094019C641C0194009C13
:10053000002C02D1019C9C42F3D103689B0727D574
:1005400001220092144B11221A60426842604268F4
:10055000426042687B23DB039A4342604268052382
:10056000DB041A434260026801231B061A4302603F
:1005700002689201FCD5426892089200426042688B
:100580000A43426041680907890F0229FAD11CBD5C
:1005900000921CBD001002400020024004220449C9
:1005A0000428086902D09043086170471043FBE7B4
:1005B00000E000E07047000010B514480168012217
:1005C000114301604168124A114041600168114ABB
:1005D0001140016001680122920491430160416869
:1005E0003F22120491434160C16A09090901C162B5
:1005F000016BFF22543291430163416B490849006A
:10060000416300218160FFF77FFF10BD00100240B1
:100610000CB8FF08FFFFF6FE70B53E4C01212046E6
:1006200000F0BFF8002874D00121204600F0ACF89B
:10063000394C092620780025401CC0B2F6062070EF
:10064000C82804D12570B08A02214840B0823348BE
:10065000017801290BD16178491CC9B26170642904
:1006600005D16570057001213046FFF7C3FD2C48A8
:10067000017801290CD1A178491CC9B2A170642963
:1006800006D1A5700570012189023046FFF7B2FD41
:100690002448017801290CD1E178491CC9B2E170E4
:1006A000642906D1E5700570012149023046FFF743
:1006B000A1FD1D48017801290BD12179491CC9B23E
:1006C0002171642905D12571057002211748FFF7B2
:1006D00091FD1748017801290BD16179491CC9B2F4
:1006E0006171642905D16571057040213046FFF7BD
:1006F00081FD1048017801290BD1A179491CC9B2AB
:10070000A171642905D1A571057020213046FFF73C
:1007100071FD70BD00040040280000202F00002063
:10072000300000203100002032000020000400488A
:1007300033000020340000207FB50C46054601211F
:100740000220FFF7E7FD6A46019514800020108122
:100750000C4C50806946204600F038F801221146C2
:10076000204600F02AF810206A46107301215173C8
:10077000917303A8FFF798FD0121204600F007F8C8
:100780007FBD000000040040C9430182704700297A
:10079000018802D00122114301E04908490001808B
:1007A00070470246138A002092890B400A40002BB2
:1007B00002D0002A00D001207047002A828901D08F
:1007C0000A4300E08A4382817047000010B5028826
:1007D000144B984206D00124A407A04202D0124C28
:1007E000A04203D17024A2434C8822430F4CA04264
:1007F00003D00F4C22400C89224302804A68C26217
:100800000A880285984208D00A4A904205D00A4ACE
:10081000904202D0094A904201D1897A0186012191
:10082000818210BD002C01400004004000100040F7
:10083000FFFC00000040014000440140004801402E
:1008400070B51A4E1849304600F04EF80025184C85
:10085000002817D0304600F0CDF86179C0B20129E8
:1008600003D165712571E571A5712179104A603A4E
:1008700050542079401C20712079642801D300F065
:1008800065FB70BD0B49304600F02EF80028F8D00B
:100890001021304600F010F801206071E0712079DD
:1008A000A071257170BD00000501050000380140F0
:1008B0009C00002004010400016270470A0C012121
:1008C0009140016270470029016802D00122114362
:1008D00001E049084900016070470246D2690020E2
:1008E0000A4200D00120704730B50A04130E0122DD
:1008F000144600258C40012B0ED0022B0ED08368AD
:10090000090C2340C0698A401040002B02D0002807
:1009100000D00125284630BD0368F1E74368EFE7C2
:1009200010B50B041C0E01238B40022C02D0032CAB
:1009300002D002E0001D00E008300168002A01D06A
:10094000194300E09943016010BD000030B5044632
:1009500000688BB00D4640084000206060680321AD
:1009600009038843A9680143616020681C49EA685B
:100970000840696811432A69024311432160A06855
:1009800003210902884369690143A1606846FFF7B2
:10099000E3FC1448844201D106980AE012488442DC
:1009A00001D1079805E01148844201D1089800E080
:1009B000029821680904296800D54000FFF7A8FBC8
:1009C0002A6852088A4200D8401C2168090404D5CC
:1009D0000107074A490F10400843A0810BB030BD02
:1009E000F3E9FFFF003801400044004000480040A8
:1009F000F0FF0000808CC005C00D7047C905C90D0F
:100A00000185704710B50446FFF7F8FF40212046E6
:100A1000FFF763FF0028F9D040210248FFF74CFFA1
:100A200010BD000000380140F8B516460D460746D7
:100A3000002406E0297838466D1CFFF7E3FF641CAC
:100A4000E4B2B442F6D3F8BD10B5024A024900F050
:100A500021F810BD250B00083800002030B4744682
:100A6000641E2578641CAB4200D21D46635D5B00AA
:100A7000E31830BC184702E008C8121F08C1002A5A
:100A8000FAD170477047002001E001C1121F002A0F
:100A9000FBD17047F8B516460F460446002503E023
:100AA0003946B047641C6D1C20780028F8D12846D0
:100AB000F8BD10B501214020FFF720FC10BD00005B
:100AC00010B50420C043FFF769FD074805490068D9
:100AD000FFF71EFB0549C0B27D220870D2005043CB
:100AE000488010BD00127A00000000202400002081
:100AF0000A49498848430A49486100228A610869CD
:100B00000123184308610869C30701D0C003FAD55F
:100B100008694008400008618A617047240000208D
:100B200000E000E010B504460649C0B2088105485F
:100B30002038C1694906FCD54021FFF7BDFE20469B
:100B400010BD0000203801401CB501214804FFF70A
:100B5000D5FB8020009001206946087100228A712F
:100B6000C871032009244871E4062046FFF7F8FA0B
:100B700080212046FFF73CFB0A20FFF7B9FF8021C8
:100B80002046FFF737FB1CBDFEB5032001214004C2
:100B9000FFF7B4FB35480090012668460671002433
:100BA0008471C4710325457109206946C006FFF7A9
:100BB000D7FA02200090684606718471C4712C4CEB
:100BC000457169462046FFF7CBFA09200121C0068E
:100BD000FFF70EFBB50209202946C006FFF708FB08
:100BE0006E1009203146C006FFF702FB02212046A5
:100BF000FFF7FEFA09204021C006FFF7F9FA0920A5
:100C00002021C006FFF7F4FAFF27F5373846FFF733
:100C10006FFF09200121C006FFF7ECFA3846FFF705
:100C200067FF09202946C006FFF7E4FA3846FFF7B8
:100C30005FFF09203146C006FFF7DCFA3846FFF7B0
:100C400057FF02212046FFF7D5FA3846FFF750FF3D
:100C500009204021C006FFF7CDFA3846FFF748FFCC
:100C600009202021C006FFF7C5FAFEBD610600007D
:100C7000000400482F210E48FFF75EFDFFF720FF1C
:100C8000E120400200F002F9FFF7F8FAFFF711FF48
:100C9000FFF77AFFFFF758FF00F00CF8FF21F5315E
:100CA0000620FFF7ABFA00F01FF8FFF7C9FAFAE7E2
:100CB000871300001CB501218805FFF71FFB0220E8
:100CC000009001206946087100228A71C8710320D2
:100CD000044C48712046FFF743FA02212046FFF7F3
:100CE00089FA1CBD00140048F8B5614C0021E07978
:100CF000012872D10020E0712746603F38785328E0
:100D000010D1002004E03A5C5118401C89B2C0B2F6
:100D1000A279521E8242F6DCA27955486138105CF5
:100D2000884201D00120F8BD7878012807D0514EC3
:100D3000022808D0032851D0042803D159E04EA03E
:100D4000FFF782FE88E04A49042260393046FFF707
:100D50006BFEB87801254A4E0300FFF77FFE07308F
:100D6000050C141C22297D0009200121C006FFF773
:100D70003FFA357070E0012109208902C006FFF7B3
:100D800037FA757068E0012109204902C006FFF7B3
:100D90002FFAB57060E002213A48FFF729FAF570A2
:100DA0005AE009204021C006FFF722FA357153E0CE
:100DB00009202021C006FFF71BFA75714CE00925B8
:100DC000ED0680212846FFF713FA0120FFF790FE79
:100DD00080212846FFF70EFA3EE046E00925ED06A1
:100DE00080212846FFF704FA1420FFF781FE8021B6
:100DF00029E0254D02212846FFF7FAF97D20C000A1
:100E0000FFF776FEFFF71CFA7D20C000FFF770FEAB
:100E1000FFF716FA7D20C000FFF76AFEFFF710FA11
:100E20007D20C000FFF764FEFFF70AFA7D20C000B6
:100E3000FFF75EFEFFF704FA7D20C000FFF758FEC3
:100E4000FFF7FEF902212846FFF7D4F908490422EA
:100E500060393046FFF7E8FD0020014602E03954D2
:100E6000401CC0B2A2798242F9D80020F8BD00002F
:100E70009C0000200038014068656C6C6F00000029
:100E80002F0000200004004800140048F1B50121A3
:100E90008AB08803FFF74AFA01214804FFF72EFAC7
:100EA0000927FF06012202213846FFF791F90122A6
:100EB00003213846FFF78CF904200090032168468F
:100EC0004171022505710024847169463846FFF797
:100ED00047F9082000906846847105710126C671A3
:100EE00069463846FFF73CF91B2168460172457296
:100EF000867202A8FFF7D8F90A980894049405941A
:100F0000069403900C200D4C079003A92046FFF790
:100F10001DFD0B492046FFF7D1FC0122094920465F
:100F2000FFF7FEFC012208492046FFF7F9FC0121EA
:100F30002046FFF7C8FC0BB0F0BD000000380140B0
:100F4000060106000501050004010400094900220C
:100F500010B508461346603002E08B54521CD2B2E2
:100F600084799442F9D80B700371C37101214171E6
:100F7000837110BD3C000020980F00080000002085
:100F80003C000000760A0008D40F00083C00002056
:100F90006C040000860A0008006CDC0200000000FF
:100FA0000000000001020304060708090000000019
:100FB00001020304010203040607080900000000FF
:100FC0000000000000000000000000000000000021
:040FD000000000001D
:04000005080000B53A
:00000001FF
